{
  "_format": "hh-sol-artifact-1",
  "contractName": "Marketplace",
  "sourceName": "contracts/Marketplace.sol",
  "abi": [
    {
      "inputs": [],
      "stateMutability": "payable",
      "type": "constructor"
    },
    {
      "anonymous": false,
      "inputs": [
        {
          "indexed": true,
          "internalType": "uint256",
          "name": "itemId",
          "type": "uint256"
        },
        {
          "indexed": false,
          "internalType": "string",
          "name": "title",
          "type": "string"
        },
        {
          "indexed": false,
          "internalType": "string",
          "name": "description",
          "type": "string"
        },
        {
          "indexed": false,
          "internalType": "uint256",
          "name": "deadline",
          "type": "uint256"
        },
        {
          "indexed": false,
          "internalType": "address",
          "name": "seller",
          "type": "address"
        },
        {
          "indexed": false,
          "internalType": "uint256",
          "name": "targetFundingPrice",
          "type": "uint256"
        }
      ],
      "name": "MarketItemCreated",
      "type": "event"
    },
    {
      "inputs": [
        {
          "internalType": "string",
          "name": "description",
          "type": "string"
        },
        {
          "internalType": "string",
          "name": "title",
          "type": "string"
        },
        {
          "internalType": "uint256",
          "name": "funding",
          "type": "uint256"
        }
      ],
      "name": "createMarketItem",
      "outputs": [],
      "stateMutability": "payable",
      "type": "function"
    },
    {
      "inputs": [
        {
          "internalType": "uint256",
          "name": "marketItemId",
          "type": "uint256"
        }
      ],
      "name": "getMarketItem",
      "outputs": [
        {
          "components": [
            {
              "internalType": "uint256",
              "name": "itemId",
              "type": "uint256"
            },
            {
              "internalType": "string",
              "name": "title",
              "type": "string"
            },
            {
              "internalType": "string",
              "name": "description",
              "type": "string"
            },
            {
              "internalType": "uint256",
              "name": "deadline",
              "type": "uint256"
            },
            {
              "internalType": "address payable",
              "name": "seller",
              "type": "address"
            },
            {
              "internalType": "uint256",
              "name": "targetFundingPrice",
              "type": "uint256"
            }
          ],
          "internalType": "struct Marketplace.MarketItem",
          "name": "",
          "type": "tuple"
        }
      ],
      "stateMutability": "view",
      "type": "function"
    }
  ],
  "bytecode": "0x608060405267016345785d8a0000600455600160008190555033600360006101000a81548173ffffffffffffffffffffffffffffffffffffffff021916908373ffffffffffffffffffffffffffffffffffffffff160217905550610c43806100686000396000f3fe6080604052600436106100295760003560e01c806316be31181461002e578063c7be7a491461004a575b600080fd5b61004860048036038101906100439190610693565b610087565b005b34801561005657600080fd5b50610071600480360381019061006c919061071c565b61035c565b60405161007e91906109a5565b60405180910390f35b600260005414156100cd576040517f08c379a00000000000000000000000000000000000000000000000000000000081526004016100c490610985565b60405180910390fd5b600260008190555060008111610118576040517f08c379a000000000000000000000000000000000000000000000000000000000815260040161010f90610965565b60405180910390fd5b600454341461015c576040517f08c379a000000000000000000000000000000000000000000000000000000000815260040161015390610945565b60405180910390fd5b6101666001610521565b60006101726001610537565b9050600062278d004261018591906109f4565b90506040518060c0016040528083815260200186868080601f016020809104026020016040519081016040528093929190818152602001838380828437600081840152601f19601f82011690508083019250505050505050815260200188888080601f016020809104026020016040519081016040528093929190818152602001838380828437600081840152601f19601f8201169050808301925050505050505081526020018281526020013373ffffffffffffffffffffffffffffffffffffffff168152602001848152506005600084815260200190815260200160002060008201518160000155602082015181600101908051906020019061028b929190610545565b5060408201518160020190805190602001906102a8929190610545565b506060820151816003015560808201518160040160006101000a81548173ffffffffffffffffffffffffffffffffffffffff021916908373ffffffffffffffffffffffffffffffffffffffff16021790555060a08201518160050155905050817ff604775d05eaeb61714ca23da55ed6b3e1dc5e818bfa6ba4c5d54dafc4b916ef86868a8a86338a60405161034397969594939291906108e0565b60405180910390a2505060016000819055505050505050565b6103646105cb565b600560008381526020019081526020016000206040518060c00160405290816000820154815260200160018201805461039c90610ada565b80601f01602080910402602001604051908101604052809291908181526020018280546103c890610ada565b80156104155780601f106103ea57610100808354040283529160200191610415565b820191906000526020600020905b8154815290600101906020018083116103f857829003601f168201915b5050505050815260200160028201805461042e90610ada565b80601f016020809104026020016040519081016040528092919081815260200182805461045a90610ada565b80156104a75780601f1061047c576101008083540402835291602001916104a7565b820191906000526020600020905b81548152906001019060200180831161048a57829003601f168201915b50505050508152602001600382015481526020016004820160009054906101000a900473ffffffffffffffffffffffffffffffffffffffff1673ffffffffffffffffffffffffffffffffffffffff1673ffffffffffffffffffffffffffffffffffffffff1681526020016005820154815250509050919050565b6001816000016000828254019250508190555050565b600081600001549050919050565b82805461055190610ada565b90600052602060002090601f01602090048101928261057357600085556105ba565b82601f1061058c57805160ff19168380011785556105ba565b828001600101855582156105ba579182015b828111156105b957825182559160200191906001019061059e565b5b5090506105c79190610617565b5090565b6040518060c0016040528060008152602001606081526020016060815260200160008152602001600073ffffffffffffffffffffffffffffffffffffffff168152602001600081525090565b5b80821115610630576000816000905550600101610618565b5090565b60008083601f84011261064657600080fd5b8235905067ffffffffffffffff81111561065f57600080fd5b60208301915083600182028301111561067757600080fd5b9250929050565b60008135905061068d81610bf6565b92915050565b6000806000806000606086880312156106ab57600080fd5b600086013567ffffffffffffffff8111156106c557600080fd5b6106d188828901610634565b9550955050602086013567ffffffffffffffff8111156106f057600080fd5b6106fc88828901610634565b9350935050604061070f8882890161067e565b9150509295509295909350565b60006020828403121561072e57600080fd5b600061073c8482850161067e565b91505092915050565b61074e81610a5c565b82525050565b61075d81610a4a565b82525050565b600061076f83856109e3565b935061077c838584610a98565b61078583610b6a565b840190509392505050565b600061079b826109c7565b6107a581856109d2565b93506107b5818560208601610aa7565b6107be81610b6a565b840191505092915050565b60006107d66020836109e3565b91506107e182610b7b565b602082019050919050565b60006107f9601e836109e3565b915061080482610ba4565b602082019050919050565b600061081c601f836109e3565b915061082782610bcd565b602082019050919050565b600060c08301600083015161084a60008601826108c2565b50602083015184820360208601526108628282610790565b9150506040830151848203604086015261087c8282610790565b915050606083015161089160608601826108c2565b5060808301516108a46080860182610745565b5060a08301516108b760a08601826108c2565b508091505092915050565b6108cb81610a8e565b82525050565b6108da81610a8e565b82525050565b600060a08201905081810360008301526108fb81898b610763565b90508181036020830152610910818789610763565b905061091f60408301866108d1565b61092c6060830185610754565b61093960808301846108d1565b98975050505050505050565b6000602082019050818103600083015261095e816107c9565b9050919050565b6000602082019050818103600083015261097e816107ec565b9050919050565b6000602082019050818103600083015261099e8161080f565b9050919050565b600060208201905081810360008301526109bf8184610832565b905092915050565b600081519050919050565b600082825260208201905092915050565b600082825260208201905092915050565b60006109ff82610a8e565b9150610a0a83610a8e565b9250827fffffffffffffffffffffffffffffffffffffffffffffffffffffffffffffffff03821115610a3f57610a3e610b0c565b5b828201905092915050565b6000610a5582610a6e565b9050919050565b6000610a6782610a6e565b9050919050565b600073ffffffffffffffffffffffffffffffffffffffff82169050919050565b6000819050919050565b82818337600083830152505050565b60005b83811015610ac5578082015181840152602081019050610aaa565b83811115610ad4576000848401525b50505050565b60006002820490506001821680610af257607f821691505b60208210811415610b0657610b05610b3b565b5b50919050565b7f4e487b7100000000000000000000000000000000000000000000000000000000600052601160045260246000fd5b7f4e487b7100000000000000000000000000000000000000000000000000000000600052602260045260246000fd5b6000601f19601f8301169050919050565b7f4c697374696e6720666565206d75737420626520657175616c20746f20302e31600082015250565b7f46756e64696e67206d757374206265206174206c656173742031207765690000600082015250565b7f5265656e7472616e637947756172643a207265656e7472616e742063616c6c00600082015250565b610bff81610a8e565b8114610c0a57600080fd5b5056fea264697066735822122004f0a76788a1010ed6e2a2f1b12a789d4c365f1409592b7f3c10bd15be771d1664736f6c63430008040033",
  "linkReferences": {},
  "deployedLinkReferences": {}
}