{
  "_format": "hh-sol-artifact-1",
  "contractName": "Marketplace",
  "sourceName": "contracts/Marketplace.sol",
  "abi": [
    {
      "inputs": [],
      "stateMutability": "payable",
      "type": "constructor"
    },
    {
      "anonymous": false,
      "inputs": [
        {
          "indexed": true,
          "internalType": "uint256",
          "name": "itemId",
          "type": "uint256"
        },
        {
          "indexed": false,
          "internalType": "string",
          "name": "title",
          "type": "string"
        },
        {
          "indexed": false,
          "internalType": "string",
          "name": "description",
          "type": "string"
        },
        {
          "indexed": false,
          "internalType": "uint256",
          "name": "deadline",
          "type": "uint256"
        },
        {
          "indexed": false,
          "internalType": "address",
          "name": "seller",
          "type": "address"
        },
        {
          "indexed": false,
          "internalType": "uint256",
          "name": "targetFundingPrice",
          "type": "uint256"
        }
      ],
      "name": "MarketItemCreated",
      "type": "event"
    },
    {
      "stateMutability": "payable",
      "type": "fallback"
    },
    {
      "inputs": [
        {
          "internalType": "string",
          "name": "description",
          "type": "string"
        },
        {
          "internalType": "string",
          "name": "title",
          "type": "string"
        },
        {
          "internalType": "uint256",
          "name": "funding",
          "type": "uint256"
        }
      ],
      "name": "createMarketItem",
      "outputs": [],
      "stateMutability": "payable",
      "type": "function"
    },
    {
      "inputs": [],
      "name": "fetchAllListings",
      "outputs": [
        {
          "components": [
            {
              "internalType": "uint256",
              "name": "itemId",
              "type": "uint256"
            },
            {
              "internalType": "string",
              "name": "title",
              "type": "string"
            },
            {
              "internalType": "string",
              "name": "description",
              "type": "string"
            },
            {
              "internalType": "uint256",
              "name": "deadline",
              "type": "uint256"
            },
            {
              "internalType": "address payable",
              "name": "seller",
              "type": "address"
            },
            {
              "internalType": "uint256",
              "name": "targetFundingPrice",
              "type": "uint256"
            }
          ],
          "internalType": "struct Marketplace.MarketItem[]",
          "name": "",
          "type": "tuple[]"
        }
      ],
      "stateMutability": "view",
      "type": "function"
    },
    {
      "inputs": [],
      "name": "fetchContributors",
      "outputs": [
        {
          "components": [
            {
              "internalType": "uint256",
              "name": "itemId",
              "type": "uint256"
            },
            {
              "internalType": "address",
              "name": "sender",
              "type": "address"
            },
            {
              "internalType": "uint256",
              "name": "contribution",
              "type": "uint256"
            }
          ],
          "internalType": "struct Marketplace.Contributor[]",
          "name": "",
          "type": "tuple[]"
        }
      ],
      "stateMutability": "view",
      "type": "function"
    },
    {
      "inputs": [],
      "name": "fetchNumberListings",
      "outputs": [
        {
          "components": [
            {
              "internalType": "uint256",
              "name": "itemId",
              "type": "uint256"
            },
            {
              "internalType": "string",
              "name": "title",
              "type": "string"
            },
            {
              "internalType": "string",
              "name": "description",
              "type": "string"
            },
            {
              "internalType": "uint256",
              "name": "deadline",
              "type": "uint256"
            },
            {
              "internalType": "address payable",
              "name": "seller",
              "type": "address"
            },
            {
              "internalType": "uint256",
              "name": "targetFundingPrice",
              "type": "uint256"
            }
          ],
          "internalType": "struct Marketplace.MarketItem[]",
          "name": "",
          "type": "tuple[]"
        }
      ],
      "stateMutability": "view",
      "type": "function"
    },
    {
      "inputs": [
        {
          "internalType": "uint256",
          "name": "marketItemId",
          "type": "uint256"
        }
      ],
      "name": "getMarketItem",
      "outputs": [
        {
          "components": [
            {
              "internalType": "uint256",
              "name": "itemId",
              "type": "uint256"
            },
            {
              "internalType": "string",
              "name": "title",
              "type": "string"
            },
            {
              "internalType": "string",
              "name": "description",
              "type": "string"
            },
            {
              "internalType": "uint256",
              "name": "deadline",
              "type": "uint256"
            },
            {
              "internalType": "address payable",
              "name": "seller",
              "type": "address"
            },
            {
              "internalType": "uint256",
              "name": "targetFundingPrice",
              "type": "uint256"
            }
          ],
          "internalType": "struct Marketplace.MarketItem",
          "name": "",
          "type": "tuple"
        }
      ],
      "stateMutability": "view",
      "type": "function"
    },
    {
      "inputs": [
        {
          "internalType": "uint256",
          "name": "itemId",
          "type": "uint256"
        }
      ],
      "name": "sendViaCall",
      "outputs": [],
      "stateMutability": "payable",
      "type": "function"
    },
    {
      "stateMutability": "payable",
      "type": "receive"
    }
  ],
  "bytecode": "0x608060405267016345785d8a0000600455600160008190555033600360006101000a81548173ffffffffffffffffffffffffffffffffffffffff021916908373ffffffffffffffffffffffffffffffffffffffff160217905550611731806100686000396000f3fe6080604052600436106100595760003560e01c806316be3118146100625780632af7724c1461007e57806378dc3960146100a9578063c7be7a49146100d4578063d2cdc9c514610111578063f0dfce801461012d57610060565b3661006057005b005b61007c60048036038101906100779190610f0e565b610158565b005b34801561008a57600080fd5b50610093610580565b6040516100a0919061133a565b60405180910390f35b3480156100b557600080fd5b506100be610777565b6040516100cb919061133a565b60405180910390f35b3480156100e057600080fd5b506100fb60048036038101906100f69190610f97565b610a52565b6040516101089190611401565b60405180910390f35b61012b60048036038101906101269190610f97565b610c17565b005b34801561013957600080fd5b50610142610cd3565b60405161014f9190611318565b60405180910390f35b6002600054141561019e576040517f08c379a0000000000000000000000000000000000000000000000000000000008152600401610195906113e1565b60405180910390fd5b6002600081905550600081116101e9576040517f08c379a00000000000000000000000000000000000000000000000000000000081526004016101e0906113c1565b60405180910390fd5b6101f36001610d9c565b60006101ff6001610db2565b9050600062278d004261021291906114c2565b90506040518060c0016040528083815260200186868080601f016020809104026020016040519081016040528093929190818152602001838380828437600081840152601f19601f82011690508083019250505050505050815260200188888080601f016020809104026020016040519081016040528093929190818152602001838380828437600081840152601f19601f8201169050808301925050505050505081526020018281526020013373ffffffffffffffffffffffffffffffffffffffff1681526020018481525060056000848152602001908152602001600020600082015181600001556020820151816001019080519060200190610318929190610dc0565b506040820151816002019080519060200190610335929190610dc0565b506060820151816003015560808201518160040160006101000a81548173ffffffffffffffffffffffffffffffffffffffff021916908373ffffffffffffffffffffffffffffffffffffffff16021790555060a0820151816005015590505060066040518060c0016040528084815260200187878080601f016020809104026020016040519081016040528093929190818152602001838380828437600081840152601f19601f82011690508083019250505050505050815260200189898080601f016020809104026020016040519081016040528093929190818152602001838380828437600081840152601f19601f8201169050808301925050505050505081526020018381526020013373ffffffffffffffffffffffffffffffffffffffff1681526020018581525090806001815401808255809150506001900390600052602060002090600602016000909190919091506000820151816000015560208201518160010190805190602001906104b0929190610dc0565b5060408201518160020190805190602001906104cd929190610dc0565b506060820151816003015560808201518160040160006101000a81548173ffffffffffffffffffffffffffffffffffffffff021916908373ffffffffffffffffffffffffffffffffffffffff16021790555060a082015181600501555050817ff604775d05eaeb61714ca23da55ed6b3e1dc5e818bfa6ba4c5d54dafc4b916ef86868a8a86338a604051610567979695949392919061135c565b60405180910390a2505060016000819055505050505050565b60606006805480602002602001604051908101604052809291908181526020016000905b8282101561076e57838290600052602060002090600602016040518060c0016040529081600082015481526020016001820180546105e1906115a8565b80601f016020809104026020016040519081016040528092919081815260200182805461060d906115a8565b801561065a5780601f1061062f5761010080835404028352916020019161065a565b820191906000526020600020905b81548152906001019060200180831161063d57829003601f168201915b50505050508152602001600282018054610673906115a8565b80601f016020809104026020016040519081016040528092919081815260200182805461069f906115a8565b80156106ec5780601f106106c1576101008083540402835291602001916106ec565b820191906000526020600020905b8154815290600101906020018083116106cf57829003601f168201915b50505050508152602001600382015481526020016004820160009054906101000a900473ffffffffffffffffffffffffffffffffffffffff1673ffffffffffffffffffffffffffffffffffffffff1673ffffffffffffffffffffffffffffffffffffffff168152602001600582015481525050815260200190600101906105a4565b50505050905090565b606060006107856001610db2565b905060008060008267ffffffffffffffff8111156107cc577f4e487b7100000000000000000000000000000000000000000000000000000000600052604160045260246000fd5b60405190808252806020026020018201604052801561080557816020015b6107f2610e46565b8152602001906001900390816107ea5790505b50905060005b84811015610a4757600060018261082291906114c2565b90506000600560008381526020019081526020016000209050806040518060c001604052908160008201548152602001600182018054610861906115a8565b80601f016020809104026020016040519081016040528092919081815260200182805461088d906115a8565b80156108da5780601f106108af576101008083540402835291602001916108da565b820191906000526020600020905b8154815290600101906020018083116108bd57829003601f168201915b505050505081526020016002820180546108f3906115a8565b80601f016020809104026020016040519081016040528092919081815260200182805461091f906115a8565b801561096c5780601f106109415761010080835404028352916020019161096c565b820191906000526020600020905b81548152906001019060200180831161094f57829003601f168201915b50505050508152602001600382015481526020016004820160009054906101000a900473ffffffffffffffffffffffffffffffffffffffff1673ffffffffffffffffffffffffffffffffffffffff1673ffffffffffffffffffffffffffffffffffffffff168152602001600582015481525050848681518110610a18577f4e487b7100000000000000000000000000000000000000000000000000000000600052603260045260246000fd5b6020026020010181905250600185610a3091906114c2565b945050508080610a3f906115da565b91505061080b565b508094505050505090565b610a5a610e46565b600560008381526020019081526020016000206040518060c001604052908160008201548152602001600182018054610a92906115a8565b80601f0160208091040260200160405190810160405280929190818152602001828054610abe906115a8565b8015610b0b5780601f10610ae057610100808354040283529160200191610b0b565b820191906000526020600020905b815481529060010190602001808311610aee57829003601f168201915b50505050508152602001600282018054610b24906115a8565b80601f0160208091040260200160405190810160405280929190818152602001828054610b50906115a8565b8015610b9d5780601f10610b7257610100808354040283529160200191610b9d565b820191906000526020600020905b815481529060010190602001808311610b8057829003601f168201915b50505050508152602001600382015481526020016004820160009054906101000a900473ffffffffffffffffffffffffffffffffffffffff1673ffffffffffffffffffffffffffffffffffffffff1673ffffffffffffffffffffffffffffffffffffffff1681526020016005820154815250509050919050565b600760405180606001604052808381526020013373ffffffffffffffffffffffffffffffffffffffff1681526020013481525090806001815401808255809150506001900390600052602060002090600302016000909190919091506000820151816000015560208201518160010160006101000a81548173ffffffffffffffffffffffffffffffffffffffff021916908373ffffffffffffffffffffffffffffffffffffffff16021790555060408201518160020155505050565b60606007805480602002602001604051908101604052809291908181526020016000905b82821015610d935783829060005260206000209060030201604051806060016040529081600082015481526020016001820160009054906101000a900473ffffffffffffffffffffffffffffffffffffffff1673ffffffffffffffffffffffffffffffffffffffff1673ffffffffffffffffffffffffffffffffffffffff16815260200160028201548152505081526020019060010190610cf7565b50505050905090565b6001816000016000828254019250508190555050565b600081600001549050919050565b828054610dcc906115a8565b90600052602060002090601f016020900481019282610dee5760008555610e35565b82601f10610e0757805160ff1916838001178555610e35565b82800160010185558215610e35579182015b82811115610e34578251825591602001919060010190610e19565b5b509050610e429190610e92565b5090565b6040518060c0016040528060008152602001606081526020016060815260200160008152602001600073ffffffffffffffffffffffffffffffffffffffff168152602001600081525090565b5b80821115610eab576000816000905550600101610e93565b5090565b60008083601f840112610ec157600080fd5b8235905067ffffffffffffffff811115610eda57600080fd5b602083019150836001820283011115610ef257600080fd5b9250929050565b600081359050610f08816116e4565b92915050565b600080600080600060608688031215610f2657600080fd5b600086013567ffffffffffffffff811115610f4057600080fd5b610f4c88828901610eaf565b9550955050602086013567ffffffffffffffff811115610f6b57600080fd5b610f7788828901610eaf565b93509350506040610f8a88828901610ef9565b9150509295509295909350565b600060208284031215610fa957600080fd5b6000610fb784828501610ef9565b91505092915050565b6000610fcc8383611198565b60608301905092915050565b6000610fe483836111da565b905092915050565b610ff58161152a565b82525050565b61100481611518565b82525050565b61101381611518565b82525050565b600061102482611443565b61102e818561147e565b935061103983611423565b8060005b8381101561106a5781516110518882610fc0565b975061105c83611464565b92505060018101905061103d565b5085935050505092915050565b60006110828261144e565b61108c818561148f565b93508360208202850161109e85611433565b8060005b858110156110da57848403895281516110bb8582610fd8565b94506110c683611471565b925060208a019950506001810190506110a2565b50829750879550505050505092915050565b60006110f883856114b1565b9350611105838584611566565b61110e83611681565b840190509392505050565b600061112482611459565b61112e81856114a0565b935061113e818560208601611575565b61114781611681565b840191505092915050565b600061115f601e836114b1565b915061116a82611692565b602082019050919050565b6000611182601f836114b1565b915061118d826116bb565b602082019050919050565b6060820160008201516111ae60008501826112fa565b5060208201516111c16020850182610ffb565b5060408201516111d460408501826112fa565b50505050565b600060c0830160008301516111f260008601826112fa565b506020830151848203602086015261120a8282611119565b915050604083015184820360408601526112248282611119565b915050606083015161123960608601826112fa565b50608083015161124c6080860182610fec565b5060a083015161125f60a08601826112fa565b508091505092915050565b600060c08301600083015161128260008601826112fa565b506020830151848203602086015261129a8282611119565b915050604083015184820360408601526112b48282611119565b91505060608301516112c960608601826112fa565b5060808301516112dc6080860182610fec565b5060a08301516112ef60a08601826112fa565b508091505092915050565b6113038161155c565b82525050565b6113128161155c565b82525050565b600060208201905081810360008301526113328184611019565b905092915050565b600060208201905081810360008301526113548184611077565b905092915050565b600060a082019050818103600083015261137781898b6110ec565b9050818103602083015261138c8187896110ec565b905061139b6040830186611309565b6113a8606083018561100a565b6113b56080830184611309565b98975050505050505050565b600060208201905081810360008301526113da81611152565b9050919050565b600060208201905081810360008301526113fa81611175565b9050919050565b6000602082019050818103600083015261141b818461126a565b905092915050565b6000819050602082019050919050565b6000819050602082019050919050565b600081519050919050565b600081519050919050565b600081519050919050565b6000602082019050919050565b6000602082019050919050565b600082825260208201905092915050565b600082825260208201905092915050565b600082825260208201905092915050565b600082825260208201905092915050565b60006114cd8261155c565b91506114d88361155c565b9250827fffffffffffffffffffffffffffffffffffffffffffffffffffffffffffffffff0382111561150d5761150c611623565b5b828201905092915050565b60006115238261153c565b9050919050565b60006115358261153c565b9050919050565b600073ffffffffffffffffffffffffffffffffffffffff82169050919050565b6000819050919050565b82818337600083830152505050565b60005b83811015611593578082015181840152602081019050611578565b838111156115a2576000848401525b50505050565b600060028204905060018216806115c057607f821691505b602082108114156115d4576115d3611652565b5b50919050565b60006115e58261155c565b91507fffffffffffffffffffffffffffffffffffffffffffffffffffffffffffffffff82141561161857611617611623565b5b600182019050919050565b7f4e487b7100000000000000000000000000000000000000000000000000000000600052601160045260246000fd5b7f4e487b7100000000000000000000000000000000000000000000000000000000600052602260045260246000fd5b6000601f19601f8301169050919050565b7f46756e64696e67206d757374206265206174206c656173742031207765690000600082015250565b7f5265656e7472616e637947756172643a207265656e7472616e742063616c6c00600082015250565b6116ed8161155c565b81146116f857600080fd5b5056fea264697066735822122005d2f507e899f9fb50f421e4b60b08f4113b05c3aa0dd4934fcbcb09ca47fe6a64736f6c63430008040033",
  "linkReferences": {},
  "deployedLinkReferences": {}
}