{
  "_format": "hh-sol-artifact-1",
  "contractName": "Marketplace",
  "sourceName": "contracts/Marketplace.sol",
  "abi": [
    {
      "inputs": [],
      "stateMutability": "payable",
      "type": "constructor"
    },
    {
      "anonymous": false,
      "inputs": [
        {
          "indexed": true,
          "internalType": "uint256",
          "name": "itemId",
          "type": "uint256"
        },
        {
          "indexed": false,
          "internalType": "address",
          "name": "sender",
          "type": "address"
        },
        {
          "indexed": false,
          "internalType": "uint256",
          "name": "contribution",
          "type": "uint256"
        }
      ],
      "name": "ContributorDonated",
      "type": "event"
    },
    {
      "anonymous": false,
      "inputs": [
        {
          "indexed": true,
          "internalType": "uint256",
          "name": "itemId",
          "type": "uint256"
        },
        {
          "indexed": false,
          "internalType": "string",
          "name": "title",
          "type": "string"
        },
        {
          "indexed": false,
          "internalType": "string",
          "name": "description",
          "type": "string"
        },
        {
          "indexed": false,
          "internalType": "uint256",
          "name": "deadline",
          "type": "uint256"
        },
        {
          "indexed": false,
          "internalType": "address",
          "name": "seller",
          "type": "address"
        },
        {
          "indexed": false,
          "internalType": "uint256",
          "name": "targetFundingPrice",
          "type": "uint256"
        }
      ],
      "name": "MarketItemCreated",
      "type": "event"
    },
    {
      "stateMutability": "payable",
      "type": "fallback"
    },
    {
      "inputs": [
        {
          "internalType": "uint256",
          "name": "itemId",
          "type": "uint256"
        }
      ],
      "name": "contributeToProject",
      "outputs": [],
      "stateMutability": "payable",
      "type": "function"
    },
    {
      "inputs": [
        {
          "internalType": "string",
          "name": "description",
          "type": "string"
        },
        {
          "internalType": "string",
          "name": "title",
          "type": "string"
        },
        {
          "internalType": "uint256",
          "name": "funding",
          "type": "uint256"
        }
      ],
      "name": "createMarketItem",
      "outputs": [],
      "stateMutability": "payable",
      "type": "function"
    },
    {
      "inputs": [],
      "name": "fetchAllListings",
      "outputs": [
        {
          "components": [
            {
              "internalType": "uint256",
              "name": "itemId",
              "type": "uint256"
            },
            {
              "internalType": "string",
              "name": "title",
              "type": "string"
            },
            {
              "internalType": "string",
              "name": "description",
              "type": "string"
            },
            {
              "internalType": "uint256",
              "name": "deadline",
              "type": "uint256"
            },
            {
              "internalType": "address payable",
              "name": "seller",
              "type": "address"
            },
            {
              "internalType": "uint256",
              "name": "targetFundingPrice",
              "type": "uint256"
            }
          ],
          "internalType": "struct Marketplace.MarketItem[]",
          "name": "",
          "type": "tuple[]"
        }
      ],
      "stateMutability": "view",
      "type": "function"
    },
    {
      "inputs": [],
      "name": "fetchContributors",
      "outputs": [
        {
          "components": [
            {
              "internalType": "uint256",
              "name": "itemId",
              "type": "uint256"
            },
            {
              "internalType": "address",
              "name": "sender",
              "type": "address"
            },
            {
              "internalType": "uint256",
              "name": "contribution",
              "type": "uint256"
            }
          ],
          "internalType": "struct Marketplace.Contributor[]",
          "name": "",
          "type": "tuple[]"
        }
      ],
      "stateMutability": "view",
      "type": "function"
    },
    {
      "inputs": [],
      "name": "fetchNumberListings",
      "outputs": [
        {
          "components": [
            {
              "internalType": "uint256",
              "name": "itemId",
              "type": "uint256"
            },
            {
              "internalType": "string",
              "name": "title",
              "type": "string"
            },
            {
              "internalType": "string",
              "name": "description",
              "type": "string"
            },
            {
              "internalType": "uint256",
              "name": "deadline",
              "type": "uint256"
            },
            {
              "internalType": "address payable",
              "name": "seller",
              "type": "address"
            },
            {
              "internalType": "uint256",
              "name": "targetFundingPrice",
              "type": "uint256"
            }
          ],
          "internalType": "struct Marketplace.MarketItem[]",
          "name": "",
          "type": "tuple[]"
        }
      ],
      "stateMutability": "view",
      "type": "function"
    },
    {
      "inputs": [
        {
          "internalType": "uint256",
          "name": "marketItemId",
          "type": "uint256"
        }
      ],
      "name": "getMarketItem",
      "outputs": [
        {
          "components": [
            {
              "internalType": "uint256",
              "name": "itemId",
              "type": "uint256"
            },
            {
              "internalType": "string",
              "name": "title",
              "type": "string"
            },
            {
              "internalType": "string",
              "name": "description",
              "type": "string"
            },
            {
              "internalType": "uint256",
              "name": "deadline",
              "type": "uint256"
            },
            {
              "internalType": "address payable",
              "name": "seller",
              "type": "address"
            },
            {
              "internalType": "uint256",
              "name": "targetFundingPrice",
              "type": "uint256"
            }
          ],
          "internalType": "struct Marketplace.MarketItem",
          "name": "",
          "type": "tuple"
        }
      ],
      "stateMutability": "view",
      "type": "function"
    },
    {
      "stateMutability": "payable",
      "type": "receive"
    }
  ],
  "bytecode": "0x608060405267016345785d8a0000600455600160008190555033600360006101000a81548173ffffffffffffffffffffffffffffffffffffffff021916908373ffffffffffffffffffffffffffffffffffffffff16021790555061192e806100686000396000f3fe6080604052600436106100595760003560e01c806316be3118146100625780632af7724c1461007e57806378dc3960146100a9578063939f69c9146100d4578063c7be7a49146100f0578063f0dfce801461012d57610060565b3661006057005b005b61007c60048036038101906100779190610fe4565b610158565b005b34801561008a57600080fd5b50610093610580565b6040516100a0919061147f565b60405180910390f35b3480156100b557600080fd5b506100be610777565b6040516100cb919061147f565b60405180910390f35b6100ee60048036038101906100e9919061106d565b610a52565b005b3480156100fc57600080fd5b506101176004803603810190610112919061106d565b610be4565b6040516101249190611586565b60405180910390f35b34801561013957600080fd5b50610142610da9565b60405161014f919061145d565b60405180910390f35b6002600054141561019e576040517f08c379a000000000000000000000000000000000000000000000000000000000815260040161019590611566565b60405180910390fd5b6002600081905550600081116101e9576040517f08c379a00000000000000000000000000000000000000000000000000000000081526004016101e090611526565b60405180910390fd5b6101f36001610e72565b60006101ff6001610e88565b9050600062278d00426102129190611647565b90506040518060c0016040528083815260200186868080601f016020809104026020016040519081016040528093929190818152602001838380828437600081840152601f19601f82011690508083019250505050505050815260200188888080601f016020809104026020016040519081016040528093929190818152602001838380828437600081840152601f19601f8201169050808301925050505050505081526020018281526020013373ffffffffffffffffffffffffffffffffffffffff1681526020018481525060056000848152602001908152602001600020600082015181600001556020820151816001019080519060200190610318929190610e96565b506040820151816002019080519060200190610335929190610e96565b506060820151816003015560808201518160040160006101000a81548173ffffffffffffffffffffffffffffffffffffffff021916908373ffffffffffffffffffffffffffffffffffffffff16021790555060a0820151816005015590505060066040518060c0016040528084815260200187878080601f016020809104026020016040519081016040528093929190818152602001838380828437600081840152601f19601f82011690508083019250505050505050815260200189898080601f016020809104026020016040519081016040528093929190818152602001838380828437600081840152601f19601f8201169050808301925050505050505081526020018381526020013373ffffffffffffffffffffffffffffffffffffffff1681526020018581525090806001815401808255809150506001900390600052602060002090600602016000909190919091506000820151816000015560208201518160010190805190602001906104b0929190610e96565b5060408201518160020190805190602001906104cd929190610e96565b506060820151816003015560808201518160040160006101000a81548173ffffffffffffffffffffffffffffffffffffffff021916908373ffffffffffffffffffffffffffffffffffffffff16021790555060a082015181600501555050817ff604775d05eaeb61714ca23da55ed6b3e1dc5e818bfa6ba4c5d54dafc4b916ef86868a8a86338a60405161056797969594939291906114a1565b60405180910390a2505060016000819055505050505050565b60606006805480602002602001604051908101604052809291908181526020016000905b8282101561076e57838290600052602060002090600602016040518060c0016040529081600082015481526020016001820180546105e19061172d565b80601f016020809104026020016040519081016040528092919081815260200182805461060d9061172d565b801561065a5780601f1061062f5761010080835404028352916020019161065a565b820191906000526020600020905b81548152906001019060200180831161063d57829003601f168201915b505050505081526020016002820180546106739061172d565b80601f016020809104026020016040519081016040528092919081815260200182805461069f9061172d565b80156106ec5780601f106106c1576101008083540402835291602001916106ec565b820191906000526020600020905b8154815290600101906020018083116106cf57829003601f168201915b50505050508152602001600382015481526020016004820160009054906101000a900473ffffffffffffffffffffffffffffffffffffffff1673ffffffffffffffffffffffffffffffffffffffff1673ffffffffffffffffffffffffffffffffffffffff168152602001600582015481525050815260200190600101906105a4565b50505050905090565b606060006107856001610e88565b905060008060008267ffffffffffffffff8111156107cc577f4e487b7100000000000000000000000000000000000000000000000000000000600052604160045260246000fd5b60405190808252806020026020018201604052801561080557816020015b6107f2610f1c565b8152602001906001900390816107ea5790505b50905060005b84811015610a475760006001826108229190611647565b90506000600560008381526020019081526020016000209050806040518060c0016040529081600082015481526020016001820180546108619061172d565b80601f016020809104026020016040519081016040528092919081815260200182805461088d9061172d565b80156108da5780601f106108af576101008083540402835291602001916108da565b820191906000526020600020905b8154815290600101906020018083116108bd57829003601f168201915b505050505081526020016002820180546108f39061172d565b80601f016020809104026020016040519081016040528092919081815260200182805461091f9061172d565b801561096c5780601f106109415761010080835404028352916020019161096c565b820191906000526020600020905b81548152906001019060200180831161094f57829003601f168201915b50505050508152602001600382015481526020016004820160009054906101000a900473ffffffffffffffffffffffffffffffffffffffff1673ffffffffffffffffffffffffffffffffffffffff1673ffffffffffffffffffffffffffffffffffffffff168152602001600582015481525050848681518110610a18577f4e487b7100000000000000000000000000000000000000000000000000000000600052603260045260246000fd5b6020026020010181905250600185610a309190611647565b945050508080610a3f9061175f565b91505061080b565b508094505050505090565b60003411610a95576040517f08c379a0000000000000000000000000000000000000000000000000000000008152600401610a8c90611506565b60405180910390fd5b6000600560008381526020019081526020016000206000015411610aee576040517f08c379a0000000000000000000000000000000000000000000000000000000008152600401610ae590611546565b60405180910390fd5b600760405180606001604052808381526020013373ffffffffffffffffffffffffffffffffffffffff1681526020013481525090806001815401808255809150506001900390600052602060002090600302016000909190919091506000820151816000015560208201518160010160006101000a81548173ffffffffffffffffffffffffffffffffffffffff021916908373ffffffffffffffffffffffffffffffffffffffff160217905550604082015181600201555050807f0140ca47d506e82a7e29386588a746babc9e999078e4749885595e0f97bfc4f23334604051610bd9929190611434565b60405180910390a250565b610bec610f1c565b600560008381526020019081526020016000206040518060c001604052908160008201548152602001600182018054610c249061172d565b80601f0160208091040260200160405190810160405280929190818152602001828054610c509061172d565b8015610c9d5780601f10610c7257610100808354040283529160200191610c9d565b820191906000526020600020905b815481529060010190602001808311610c8057829003601f168201915b50505050508152602001600282018054610cb69061172d565b80601f0160208091040260200160405190810160405280929190818152602001828054610ce29061172d565b8015610d2f5780601f10610d0457610100808354040283529160200191610d2f565b820191906000526020600020905b815481529060010190602001808311610d1257829003601f168201915b50505050508152602001600382015481526020016004820160009054906101000a900473ffffffffffffffffffffffffffffffffffffffff1673ffffffffffffffffffffffffffffffffffffffff1673ffffffffffffffffffffffffffffffffffffffff1681526020016005820154815250509050919050565b60606007805480602002602001604051908101604052809291908181526020016000905b82821015610e695783829060005260206000209060030201604051806060016040529081600082015481526020016001820160009054906101000a900473ffffffffffffffffffffffffffffffffffffffff1673ffffffffffffffffffffffffffffffffffffffff1673ffffffffffffffffffffffffffffffffffffffff16815260200160028201548152505081526020019060010190610dcd565b50505050905090565b6001816000016000828254019250508190555050565b600081600001549050919050565b828054610ea29061172d565b90600052602060002090601f016020900481019282610ec45760008555610f0b565b82601f10610edd57805160ff1916838001178555610f0b565b82800160010185558215610f0b579182015b82811115610f0a578251825591602001919060010190610eef565b5b509050610f189190610f68565b5090565b6040518060c0016040528060008152602001606081526020016060815260200160008152602001600073ffffffffffffffffffffffffffffffffffffffff168152602001600081525090565b5b80821115610f81576000816000905550600101610f69565b5090565b60008083601f840112610f9757600080fd5b8235905067ffffffffffffffff811115610fb057600080fd5b602083019150836001820283011115610fc857600080fd5b9250929050565b600081359050610fde816118e1565b92915050565b600080600080600060608688031215610ffc57600080fd5b600086013567ffffffffffffffff81111561101657600080fd5b61102288828901610f85565b9550955050602086013567ffffffffffffffff81111561104157600080fd5b61104d88828901610f85565b9350935050604061106088828901610fcf565b9150509295509295909350565b60006020828403121561107f57600080fd5b600061108d84828501610fcf565b91505092915050565b60006110a283836112b4565b60608301905092915050565b60006110ba83836112f6565b905092915050565b6110cb816116af565b82525050565b6110da8161169d565b82525050565b6110e98161169d565b82525050565b60006110fa826115c8565b6111048185611603565b935061110f836115a8565b8060005b838110156111405781516111278882611096565b9750611132836115e9565b925050600181019050611113565b5085935050505092915050565b6000611158826115d3565b6111628185611614565b935083602082028501611174856115b8565b8060005b858110156111b0578484038952815161119185826110ae565b945061119c836115f6565b925060208a01995050600181019050611178565b50829750879550505050505092915050565b60006111ce8385611636565b93506111db8385846116eb565b6111e483611806565b840190509392505050565b60006111fa826115de565b6112048185611625565b93506112148185602086016116fa565b61121d81611806565b840191505092915050565b6000611235602583611636565b915061124082611817565b604082019050919050565b6000611258601e83611636565b915061126382611866565b602082019050919050565b600061127b601883611636565b91506112868261188f565b602082019050919050565b600061129e601f83611636565b91506112a9826118b8565b602082019050919050565b6060820160008201516112ca6000850182611416565b5060208201516112dd60208501826110d1565b5060408201516112f06040850182611416565b50505050565b600060c08301600083015161130e6000860182611416565b506020830151848203602086015261132682826111ef565b9150506040830151848203604086015261134082826111ef565b91505060608301516113556060860182611416565b50608083015161136860808601826110c2565b5060a083015161137b60a0860182611416565b508091505092915050565b600060c08301600083015161139e6000860182611416565b50602083015184820360208601526113b682826111ef565b915050604083015184820360408601526113d082826111ef565b91505060608301516113e56060860182611416565b5060808301516113f860808601826110c2565b5060a083015161140b60a0860182611416565b508091505092915050565b61141f816116e1565b82525050565b61142e816116e1565b82525050565b600060408201905061144960008301856110e0565b6114566020830184611425565b9392505050565b6000602082019050818103600083015261147781846110ef565b905092915050565b60006020820190508181036000830152611499818461114d565b905092915050565b600060a08201905081810360008301526114bc81898b6111c2565b905081810360208301526114d18187896111c2565b90506114e06040830186611425565b6114ed60608301856110e0565b6114fa6080830184611425565b98975050505050505050565b6000602082019050818103600083015261151f81611228565b9050919050565b6000602082019050818103600083015261153f8161124b565b9050919050565b6000602082019050818103600083015261155f8161126e565b9050919050565b6000602082019050818103600083015261157f81611291565b9050919050565b600060208201905081810360008301526115a08184611386565b905092915050565b6000819050602082019050919050565b6000819050602082019050919050565b600081519050919050565b600081519050919050565b600081519050919050565b6000602082019050919050565b6000602082019050919050565b600082825260208201905092915050565b600082825260208201905092915050565b600082825260208201905092915050565b600082825260208201905092915050565b6000611652826116e1565b915061165d836116e1565b9250827fffffffffffffffffffffffffffffffffffffffffffffffffffffffffffffffff03821115611692576116916117a8565b5b828201905092915050565b60006116a8826116c1565b9050919050565b60006116ba826116c1565b9050919050565b600073ffffffffffffffffffffffffffffffffffffffff82169050919050565b6000819050919050565b82818337600083830152505050565b60005b838110156117185780820151818401526020810190506116fd565b83811115611727576000848401525b50505050565b6000600282049050600182168061174557607f821691505b60208210811415611759576117586117d7565b5b50919050565b600061176a826116e1565b91507fffffffffffffffffffffffffffffffffffffffffffffffffffffffffffffffff82141561179d5761179c6117a8565b5b600182019050919050565b7f4e487b7100000000000000000000000000000000000000000000000000000000600052601160045260246000fd5b7f4e487b7100000000000000000000000000000000000000000000000000000000600052602260045260246000fd5b6000601f19601f8301169050919050565b7f636f6e747269627574696f6e206d757374206265207375706572696f7220746f60008201527f207a65726f000000000000000000000000000000000000000000000000000000602082015250565b7f46756e64696e67206d757374206265206174206c656173742031207765690000600082015250565b7f70726f6a656374206964206d7573742062652076616c69640000000000000000600082015250565b7f5265656e7472616e637947756172643a207265656e7472616e742063616c6c00600082015250565b6118ea816116e1565b81146118f557600080fd5b5056fea2646970667358221220122ff999669e6b39d143126459e0c72a8782570cb3169f01d7c700de362234d364736f6c63430008040033",
  "linkReferences": {},
  "deployedLinkReferences": {}
}