{
  "_format": "hh-sol-artifact-1",
  "contractName": "Marketplace",
  "sourceName": "contracts/Marketplace.sol",
  "abi": [
    {
      "inputs": [],
      "stateMutability": "payable",
      "type": "constructor"
    },
    {
      "anonymous": false,
      "inputs": [
        {
          "indexed": true,
          "internalType": "uint256",
          "name": "itemId",
          "type": "uint256"
        },
        {
          "indexed": false,
          "internalType": "address",
          "name": "sender",
          "type": "address"
        },
        {
          "indexed": false,
          "internalType": "uint256",
          "name": "contribution",
          "type": "uint256"
        }
      ],
      "name": "ContributorDonated",
      "type": "event"
    },
    {
      "anonymous": false,
      "inputs": [
        {
          "indexed": true,
          "internalType": "uint256",
          "name": "itemId",
          "type": "uint256"
        },
        {
          "indexed": false,
          "internalType": "string",
          "name": "title",
          "type": "string"
        },
        {
          "indexed": false,
          "internalType": "string",
          "name": "description",
          "type": "string"
        },
        {
          "indexed": false,
          "internalType": "uint256",
          "name": "deadline",
          "type": "uint256"
        },
        {
          "indexed": false,
          "internalType": "address",
          "name": "seller",
          "type": "address"
        },
        {
          "indexed": false,
          "internalType": "uint256",
          "name": "targetFundingPrice",
          "type": "uint256"
        }
      ],
      "name": "MarketItemCreated",
      "type": "event"
    },
    {
      "stateMutability": "payable",
      "type": "fallback"
    },
    {
      "inputs": [
        {
          "internalType": "uint256",
          "name": "itemId",
          "type": "uint256"
        }
      ],
      "name": "claimBackDonationMissedProjectDeadline",
      "outputs": [],
      "stateMutability": "nonpayable",
      "type": "function"
    },
    {
      "inputs": [
        {
          "internalType": "uint256",
          "name": "itemId",
          "type": "uint256"
        }
      ],
      "name": "contributeToProject",
      "outputs": [],
      "stateMutability": "payable",
      "type": "function"
    },
    {
      "inputs": [
        {
          "internalType": "string",
          "name": "description",
          "type": "string"
        },
        {
          "internalType": "string",
          "name": "title",
          "type": "string"
        },
        {
          "internalType": "uint256",
          "name": "funding",
          "type": "uint256"
        }
      ],
      "name": "createMarketItem",
      "outputs": [],
      "stateMutability": "payable",
      "type": "function"
    },
    {
      "inputs": [],
      "name": "fetchAllListings",
      "outputs": [
        {
          "components": [
            {
              "internalType": "uint256",
              "name": "itemId",
              "type": "uint256"
            },
            {
              "internalType": "string",
              "name": "title",
              "type": "string"
            },
            {
              "internalType": "string",
              "name": "description",
              "type": "string"
            },
            {
              "internalType": "uint256",
              "name": "deadline",
              "type": "uint256"
            },
            {
              "internalType": "address payable",
              "name": "seller",
              "type": "address"
            },
            {
              "internalType": "uint256",
              "name": "targetFundingPrice",
              "type": "uint256"
            }
          ],
          "internalType": "struct Marketplace.MarketItem[]",
          "name": "",
          "type": "tuple[]"
        }
      ],
      "stateMutability": "view",
      "type": "function"
    },
    {
      "inputs": [
        {
          "internalType": "uint256",
          "name": "itemId",
          "type": "uint256"
        }
      ],
      "name": "fetchClaimedDonationPerProject",
      "outputs": [
        {
          "components": [
            {
              "internalType": "uint256",
              "name": "itemId",
              "type": "uint256"
            },
            {
              "internalType": "address payable",
              "name": "sender",
              "type": "address"
            },
            {
              "internalType": "uint256",
              "name": "contribution",
              "type": "uint256"
            }
          ],
          "internalType": "struct Marketplace.Contributor[]",
          "name": "",
          "type": "tuple[]"
        }
      ],
      "stateMutability": "view",
      "type": "function"
    },
    {
      "inputs": [],
      "name": "fetchContributors",
      "outputs": [
        {
          "components": [
            {
              "internalType": "uint256",
              "name": "itemId",
              "type": "uint256"
            },
            {
              "internalType": "address payable",
              "name": "sender",
              "type": "address"
            },
            {
              "internalType": "uint256",
              "name": "contribution",
              "type": "uint256"
            }
          ],
          "internalType": "struct Marketplace.Contributor[]",
          "name": "",
          "type": "tuple[]"
        }
      ],
      "stateMutability": "view",
      "type": "function"
    },
    {
      "inputs": [
        {
          "internalType": "uint256",
          "name": "itemId",
          "type": "uint256"
        }
      ],
      "name": "fetchContributorsPerProject",
      "outputs": [
        {
          "components": [
            {
              "internalType": "uint256",
              "name": "itemId",
              "type": "uint256"
            },
            {
              "internalType": "address payable",
              "name": "sender",
              "type": "address"
            },
            {
              "internalType": "uint256",
              "name": "contribution",
              "type": "uint256"
            }
          ],
          "internalType": "struct Marketplace.Contributor[]",
          "name": "",
          "type": "tuple[]"
        }
      ],
      "stateMutability": "view",
      "type": "function"
    },
    {
      "inputs": [],
      "name": "fetchNumberListings",
      "outputs": [
        {
          "components": [
            {
              "internalType": "uint256",
              "name": "itemId",
              "type": "uint256"
            },
            {
              "internalType": "string",
              "name": "title",
              "type": "string"
            },
            {
              "internalType": "string",
              "name": "description",
              "type": "string"
            },
            {
              "internalType": "uint256",
              "name": "deadline",
              "type": "uint256"
            },
            {
              "internalType": "address payable",
              "name": "seller",
              "type": "address"
            },
            {
              "internalType": "uint256",
              "name": "targetFundingPrice",
              "type": "uint256"
            }
          ],
          "internalType": "struct Marketplace.MarketItem[]",
          "name": "",
          "type": "tuple[]"
        }
      ],
      "stateMutability": "view",
      "type": "function"
    },
    {
      "inputs": [
        {
          "internalType": "uint256",
          "name": "itemId",
          "type": "uint256"
        }
      ],
      "name": "fetchProject",
      "outputs": [
        {
          "components": [
            {
              "internalType": "uint256",
              "name": "itemId",
              "type": "uint256"
            },
            {
              "internalType": "string",
              "name": "title",
              "type": "string"
            },
            {
              "internalType": "string",
              "name": "description",
              "type": "string"
            },
            {
              "internalType": "uint256",
              "name": "deadline",
              "type": "uint256"
            },
            {
              "internalType": "address payable",
              "name": "seller",
              "type": "address"
            },
            {
              "internalType": "uint256",
              "name": "targetFundingPrice",
              "type": "uint256"
            }
          ],
          "internalType": "struct Marketplace.MarketItem",
          "name": "",
          "type": "tuple"
        }
      ],
      "stateMutability": "view",
      "type": "function"
    },
    {
      "inputs": [
        {
          "internalType": "address",
          "name": "user",
          "type": "address"
        }
      ],
      "name": "fetchcontributorToProjects",
      "outputs": [
        {
          "internalType": "uint256[]",
          "name": "",
          "type": "uint256[]"
        }
      ],
      "stateMutability": "view",
      "type": "function"
    },
    {
      "inputs": [
        {
          "internalType": "uint256",
          "name": "marketItemId",
          "type": "uint256"
        }
      ],
      "name": "getMarketItem",
      "outputs": [
        {
          "components": [
            {
              "internalType": "uint256",
              "name": "itemId",
              "type": "uint256"
            },
            {
              "internalType": "string",
              "name": "title",
              "type": "string"
            },
            {
              "internalType": "string",
              "name": "description",
              "type": "string"
            },
            {
              "internalType": "uint256",
              "name": "deadline",
              "type": "uint256"
            },
            {
              "internalType": "address payable",
              "name": "seller",
              "type": "address"
            },
            {
              "internalType": "uint256",
              "name": "targetFundingPrice",
              "type": "uint256"
            }
          ],
          "internalType": "struct Marketplace.MarketItem",
          "name": "",
          "type": "tuple"
        }
      ],
      "stateMutability": "view",
      "type": "function"
    },
    {
      "stateMutability": "payable",
      "type": "receive"
    }
  ],
  "bytecode": "0x608060405267016345785d8a0000600455600160008190555033600360006101000a81548173ffffffffffffffffffffffffffffffffffffffff021916908373ffffffffffffffffffffffffffffffffffffffff1602179055506126f9806100686000396000f3fe6080604052600436106100a05760003560e01c8063939f69c911610064578063939f69c914610181578063ac22b0c21461019d578063c7be7a49146101da578063e1bbec3d14610217578063f0dfce8014610254578063fb0ffc3b1461027f576100a7565b80630bd49fa0146100a957806316be3118146100d257806325fb855b146100ee5780632af7724c1461012b57806378dc396014610156576100a7565b366100a757005b005b3480156100b557600080fd5b506100d060048036038101906100cb9190611ba9565b6102bc565b005b6100ec60048036038101906100e79190611b20565b610661565b005b3480156100fa57600080fd5b5061011560048036038101906101109190611ba9565b610a89565b6040516101229190612069565b60405180910390f35b34801561013757600080fd5b50610140610b65565b60405161014d919061208b565b60405180910390f35b34801561016257600080fd5b5061016b610d5c565b604051610178919061208b565b60405180910390f35b61019b60048036038101906101969190611ba9565b611037565b005b3480156101a957600080fd5b506101c460048036038101906101bf9190611ba9565b6113aa565b6040516101d19190612069565b60405180910390f35b3480156101e657600080fd5b5061020160048036038101906101fc9190611ba9565b611486565b60405161020e9190612214565b60405180910390f35b34801561022357600080fd5b5061023e60048036038101906102399190611ba9565b61164b565b60405161024b9190612214565b60405180910390f35b34801561026057600080fd5b50610269611810565b6040516102769190612069565b60405180910390f35b34801561028b57600080fd5b506102a660048036038101906102a19190611af7565b6118d9565b6040516102b391906120ad565b60405180910390f35b6000806000905060005b60066000858152602001908152602001600020805490508110156103b3573373ffffffffffffffffffffffffffffffffffffffff16600660008681526020019081526020016000208281548110610346577f4e487b7100000000000000000000000000000000000000000000000000000000600052603260045260246000fd5b906000526020600020906003020160010160009054906101000a900473ffffffffffffffffffffffffffffffffffffffff1673ffffffffffffffffffffffffffffffffffffffff1614156103a057600192508091506103b3565b80806103ab90612426565b9150506102c6565b50816103f4576040517f08c379a00000000000000000000000000000000000000000000000000000000081526004016103eb90612134565b60405180910390fd5b6000600660008581526020019081526020016000208281548110610441577f4e487b7100000000000000000000000000000000000000000000000000000000600052603260045260246000fd5b9060005260206000209060030201604051806060016040529081600082015481526020016001820160009054906101000a900473ffffffffffffffffffffffffffffffffffffffff1673ffffffffffffffffffffffffffffffffffffffff1673ffffffffffffffffffffffffffffffffffffffff1681526020016002820154815250509050600660008581526020019081526020016000208281548110610511577f4e487b7100000000000000000000000000000000000000000000000000000000600052603260045260246000fd5b906000526020600020906003020160010160009054906101000a900473ffffffffffffffffffffffffffffffffffffffff1673ffffffffffffffffffffffffffffffffffffffff166108fc82604001519081150290604051600060405180830381858888f1935050505015801561058c573d6000803e3d6000fd5b506007600085815260200190815260200160002060405180606001604052808681526020013373ffffffffffffffffffffffffffffffffffffffff168152602001836040015181525090806001815401808255809150506001900390600052602060002090600302016000909190919091506000820151816000015560208201518160010160006101000a81548173ffffffffffffffffffffffffffffffffffffffff021916908373ffffffffffffffffffffffffffffffffffffffff16021790555060408201518160020155505050505050565b600260005414156106a7576040517f08c379a000000000000000000000000000000000000000000000000000000000815260040161069e906121f4565b60405180910390fd5b6002600081905550600081116106f2576040517f08c379a00000000000000000000000000000000000000000000000000000000081526004016106e9906121b4565b60405180910390fd5b6106fc6001611970565b60006107086001611986565b9050600062278d004261071b919061230e565b90506040518060c0016040528083815260200186868080601f016020809104026020016040519081016040528093929190818152602001838380828437600081840152601f19601f82011690508083019250505050505050815260200188888080601f016020809104026020016040519081016040528093929190818152602001838380828437600081840152601f19601f8201169050808301925050505050505081526020018281526020013373ffffffffffffffffffffffffffffffffffffffff1681526020018481525060056000848152602001908152602001600020600082015181600001556020820151816001019080519060200190610821929190611994565b50604082015181600201908051906020019061083e929190611994565b506060820151816003015560808201518160040160006101000a81548173ffffffffffffffffffffffffffffffffffffffff021916908373ffffffffffffffffffffffffffffffffffffffff16021790555060a0820151816005015590505060096040518060c0016040528084815260200187878080601f016020809104026020016040519081016040528093929190818152602001838380828437600081840152601f19601f82011690508083019250505050505050815260200189898080601f016020809104026020016040519081016040528093929190818152602001838380828437600081840152601f19601f8201169050808301925050505050505081526020018381526020013373ffffffffffffffffffffffffffffffffffffffff1681526020018581525090806001815401808255809150506001900390600052602060002090600602016000909190919091506000820151816000015560208201518160010190805190602001906109b9929190611994565b5060408201518160020190805190602001906109d6929190611994565b506060820151816003015560808201518160040160006101000a81548173ffffffffffffffffffffffffffffffffffffffff021916908373ffffffffffffffffffffffffffffffffffffffff16021790555060a082015181600501555050817ff604775d05eaeb61714ca23da55ed6b3e1dc5e818bfa6ba4c5d54dafc4b916ef86868a8a86338a604051610a7097969594939291906120cf565b60405180910390a2505060016000819055505050505050565b606060066000838152602001908152602001600020805480602002602001604051908101604052809291908181526020016000905b82821015610b5a5783829060005260206000209060030201604051806060016040529081600082015481526020016001820160009054906101000a900473ffffffffffffffffffffffffffffffffffffffff1673ffffffffffffffffffffffffffffffffffffffff1673ffffffffffffffffffffffffffffffffffffffff16815260200160028201548152505081526020019060010190610abe565b505050509050919050565b60606009805480602002602001604051908101604052809291908181526020016000905b82821015610d5357838290600052602060002090600602016040518060c001604052908160008201548152602001600182018054610bc6906123f4565b80601f0160208091040260200160405190810160405280929190818152602001828054610bf2906123f4565b8015610c3f5780601f10610c1457610100808354040283529160200191610c3f565b820191906000526020600020905b815481529060010190602001808311610c2257829003601f168201915b50505050508152602001600282018054610c58906123f4565b80601f0160208091040260200160405190810160405280929190818152602001828054610c84906123f4565b8015610cd15780601f10610ca657610100808354040283529160200191610cd1565b820191906000526020600020905b815481529060010190602001808311610cb457829003601f168201915b50505050508152602001600382015481526020016004820160009054906101000a900473ffffffffffffffffffffffffffffffffffffffff1673ffffffffffffffffffffffffffffffffffffffff1673ffffffffffffffffffffffffffffffffffffffff16815260200160058201548152505081526020019060010190610b89565b50505050905090565b60606000610d6a6001611986565b905060008060008267ffffffffffffffff811115610db1577f4e487b7100000000000000000000000000000000000000000000000000000000600052604160045260246000fd5b604051908082528060200260200182016040528015610dea57816020015b610dd7611a1a565b815260200190600190039081610dcf5790505b50905060005b8481101561102c576000600182610e07919061230e565b90506000600560008381526020019081526020016000209050806040518060c001604052908160008201548152602001600182018054610e46906123f4565b80601f0160208091040260200160405190810160405280929190818152602001828054610e72906123f4565b8015610ebf5780601f10610e9457610100808354040283529160200191610ebf565b820191906000526020600020905b815481529060010190602001808311610ea257829003601f168201915b50505050508152602001600282018054610ed8906123f4565b80601f0160208091040260200160405190810160405280929190818152602001828054610f04906123f4565b8015610f515780601f10610f2657610100808354040283529160200191610f51565b820191906000526020600020905b815481529060010190602001808311610f3457829003601f168201915b50505050508152602001600382015481526020016004820160009054906101000a900473ffffffffffffffffffffffffffffffffffffffff1673ffffffffffffffffffffffffffffffffffffffff1673ffffffffffffffffffffffffffffffffffffffff168152602001600582015481525050848681518110610ffd577f4e487b7100000000000000000000000000000000000000000000000000000000600052603260045260246000fd5b6020026020010181905250600185611015919061230e565b94505050808061102490612426565b915050610df0565b508094505050505090565b6000341161107a576040517f08c379a000000000000000000000000000000000000000000000000000000000815260040161107190612174565b60405180910390fd5b60006005600083815260200190815260200160002060000154116110d3576040517f08c379a00000000000000000000000000000000000000000000000000000000081526004016110ca906121d4565b60405180910390fd5b600560008281526020019081526020016000206005015434111561112c576040517f08c379a000000000000000000000000000000000000000000000000000000000815260040161112390612154565b60405180910390fd5b42600560008381526020019081526020016000206003015411611184576040517f08c379a000000000000000000000000000000000000000000000000000000000815260040161117b90612194565b60405180910390fd5b600a60405180606001604052808381526020013373ffffffffffffffffffffffffffffffffffffffff1681526020013481525090806001815401808255809150506001900390600052602060002090600302016000909190919091506000820151816000015560208201518160010160006101000a81548173ffffffffffffffffffffffffffffffffffffffff021916908373ffffffffffffffffffffffffffffffffffffffff1602179055506040820151816002015550506006600082815260200190815260200160002060405180606001604052808381526020013373ffffffffffffffffffffffffffffffffffffffff1681526020013481525090806001815401808255809150506001900390600052602060002090600302016000909190919091506000820151816000015560208201518160010160006101000a81548173ffffffffffffffffffffffffffffffffffffffff021916908373ffffffffffffffffffffffffffffffffffffffff160217905550604082015181600201555050600860003373ffffffffffffffffffffffffffffffffffffffff1673ffffffffffffffffffffffffffffffffffffffff168152602001908152602001600020819080600181540180825580915050600190039060005260206000200160009091909190915055807f0140ca47d506e82a7e29386588a746babc9e999078e4749885595e0f97bfc4f2333460405161139f929190612040565b60405180910390a250565b606060076000838152602001908152602001600020805480602002602001604051908101604052809291908181526020016000905b8282101561147b5783829060005260206000209060030201604051806060016040529081600082015481526020016001820160009054906101000a900473ffffffffffffffffffffffffffffffffffffffff1673ffffffffffffffffffffffffffffffffffffffff1673ffffffffffffffffffffffffffffffffffffffff168152602001600282015481525050815260200190600101906113df565b505050509050919050565b61148e611a1a565b600560008381526020019081526020016000206040518060c0016040529081600082015481526020016001820180546114c6906123f4565b80601f01602080910402602001604051908101604052809291908181526020018280546114f2906123f4565b801561153f5780601f106115145761010080835404028352916020019161153f565b820191906000526020600020905b81548152906001019060200180831161152257829003601f168201915b50505050508152602001600282018054611558906123f4565b80601f0160208091040260200160405190810160405280929190818152602001828054611584906123f4565b80156115d15780601f106115a6576101008083540402835291602001916115d1565b820191906000526020600020905b8154815290600101906020018083116115b457829003601f168201915b50505050508152602001600382015481526020016004820160009054906101000a900473ffffffffffffffffffffffffffffffffffffffff1673ffffffffffffffffffffffffffffffffffffffff1673ffffffffffffffffffffffffffffffffffffffff1681526020016005820154815250509050919050565b611653611a1a565b600560008381526020019081526020016000206040518060c00160405290816000820154815260200160018201805461168b906123f4565b80601f01602080910402602001604051908101604052809291908181526020018280546116b7906123f4565b80156117045780601f106116d957610100808354040283529160200191611704565b820191906000526020600020905b8154815290600101906020018083116116e757829003601f168201915b5050505050815260200160028201805461171d906123f4565b80601f0160208091040260200160405190810160405280929190818152602001828054611749906123f4565b80156117965780601f1061176b57610100808354040283529160200191611796565b820191906000526020600020905b81548152906001019060200180831161177957829003601f168201915b50505050508152602001600382015481526020016004820160009054906101000a900473ffffffffffffffffffffffffffffffffffffffff1673ffffffffffffffffffffffffffffffffffffffff1673ffffffffffffffffffffffffffffffffffffffff1681526020016005820154815250509050919050565b6060600a805480602002602001604051908101604052809291908181526020016000905b828210156118d05783829060005260206000209060030201604051806060016040529081600082015481526020016001820160009054906101000a900473ffffffffffffffffffffffffffffffffffffffff1673ffffffffffffffffffffffffffffffffffffffff1673ffffffffffffffffffffffffffffffffffffffff16815260200160028201548152505081526020019060010190611834565b50505050905090565b6060600860008373ffffffffffffffffffffffffffffffffffffffff1673ffffffffffffffffffffffffffffffffffffffff16815260200190815260200160002080548060200260200160405190810160405280929190818152602001828054801561196457602002820191906000526020600020905b815481526020019060010190808311611950575b50505050509050919050565b6001816000016000828254019250508190555050565b600081600001549050919050565b8280546119a0906123f4565b90600052602060002090601f0160209004810192826119c25760008555611a09565b82601f106119db57805160ff1916838001178555611a09565b82800160010185558215611a09579182015b82811115611a085782518255916020019190600101906119ed565b5b509050611a169190611a66565b5090565b6040518060c0016040528060008152602001606081526020016060815260200160008152602001600073ffffffffffffffffffffffffffffffffffffffff168152602001600081525090565b5b80821115611a7f576000816000905550600101611a67565b5090565b600081359050611a9281612695565b92915050565b60008083601f840112611aaa57600080fd5b8235905067ffffffffffffffff811115611ac357600080fd5b602083019150836001820283011115611adb57600080fd5b9250929050565b600081359050611af1816126ac565b92915050565b600060208284031215611b0957600080fd5b6000611b1784828501611a83565b91505092915050565b600080600080600060608688031215611b3857600080fd5b600086013567ffffffffffffffff811115611b5257600080fd5b611b5e88828901611a98565b9550955050602086013567ffffffffffffffff811115611b7d57600080fd5b611b8988828901611a98565b93509350506040611b9c88828901611ae2565b9150509295509295909350565b600060208284031215611bbb57600080fd5b6000611bc984828501611ae2565b91505092915050565b6000611bde8383611ec0565b60608301905092915050565b6000611bf68383611f02565b905092915050565b6000611c0a8383612022565b60208301905092915050565b611c1f81612376565b82525050565b611c2e81612364565b82525050565b6000611c3f82612266565b611c4981856122b9565b9350611c5483612236565b8060005b83811015611c85578151611c6c8882611bd2565b9750611c7783612292565b925050600181019050611c58565b5085935050505092915050565b6000611c9d82612271565b611ca781856122ca565b935083602082028501611cb985612246565b8060005b85811015611cf55784840389528151611cd68582611bea565b9450611ce18361229f565b925060208a01995050600181019050611cbd565b50829750879550505050505092915050565b6000611d128261227c565b611d1c81856122db565b9350611d2783612256565b8060005b83811015611d58578151611d3f8882611bfe565b9750611d4a836122ac565b925050600181019050611d2b565b5085935050505092915050565b6000611d7183856122fd565b9350611d7e8385846123b2565b611d87836124cd565b840190509392505050565b6000611d9d82612287565b611da781856122ec565b9350611db78185602086016123c1565b611dc0816124cd565b840191505092915050565b6000611dd86022836122fd565b9150611de3826124de565b604082019050919050565b6000611dfb6039836122fd565b9150611e068261252d565b604082019050919050565b6000611e1e6025836122fd565b9150611e298261257c565b604082019050919050565b6000611e416026836122fd565b9150611e4c826125cb565b604082019050919050565b6000611e64601e836122fd565b9150611e6f8261261a565b602082019050919050565b6000611e876018836122fd565b9150611e9282612643565b602082019050919050565b6000611eaa601f836122fd565b9150611eb58261266c565b602082019050919050565b606082016000820151611ed66000850182612022565b506020820151611ee96020850182611c16565b506040820151611efc6040850182612022565b50505050565b600060c083016000830151611f1a6000860182612022565b5060208301518482036020860152611f328282611d92565b91505060408301518482036040860152611f4c8282611d92565b9150506060830151611f616060860182612022565b506080830151611f746080860182611c16565b5060a0830151611f8760a0860182612022565b508091505092915050565b600060c083016000830151611faa6000860182612022565b5060208301518482036020860152611fc28282611d92565b91505060408301518482036040860152611fdc8282611d92565b9150506060830151611ff16060860182612022565b5060808301516120046080860182611c16565b5060a083015161201760a0860182612022565b508091505092915050565b61202b816123a8565b82525050565b61203a816123a8565b82525050565b60006040820190506120556000830185611c25565b6120626020830184612031565b9392505050565b600060208201905081810360008301526120838184611c34565b905092915050565b600060208201905081810360008301526120a58184611c92565b905092915050565b600060208201905081810360008301526120c78184611d07565b905092915050565b600060a08201905081810360008301526120ea81898b611d65565b905081810360208301526120ff818789611d65565b905061210e6040830186612031565b61211b6060830185611c25565b6121286080830184612031565b98975050505050505050565b6000602082019050818103600083015261214d81611dcb565b9050919050565b6000602082019050818103600083015261216d81611dee565b9050919050565b6000602082019050818103600083015261218d81611e11565b9050919050565b600060208201905081810360008301526121ad81611e34565b9050919050565b600060208201905081810360008301526121cd81611e57565b9050919050565b600060208201905081810360008301526121ed81611e7a565b9050919050565b6000602082019050818103600083015261220d81611e9d565b9050919050565b6000602082019050818103600083015261222e8184611f92565b905092915050565b6000819050602082019050919050565b6000819050602082019050919050565b6000819050602082019050919050565b600081519050919050565b600081519050919050565b600081519050919050565b600081519050919050565b6000602082019050919050565b6000602082019050919050565b6000602082019050919050565b600082825260208201905092915050565b600082825260208201905092915050565b600082825260208201905092915050565b600082825260208201905092915050565b600082825260208201905092915050565b6000612319826123a8565b9150612324836123a8565b9250827fffffffffffffffffffffffffffffffffffffffffffffffffffffffffffffffff038211156123595761235861246f565b5b828201905092915050565b600061236f82612388565b9050919050565b600061238182612388565b9050919050565b600073ffffffffffffffffffffffffffffffffffffffff82169050919050565b6000819050919050565b82818337600083830152505050565b60005b838110156123df5780820151818401526020810190506123c4565b838111156123ee576000848401525b50505050565b6000600282049050600182168061240c57607f821691505b602082108114156124205761241f61249e565b5b50919050565b6000612431826123a8565b91507fffffffffffffffffffffffffffffffffffffffffffffffffffffffffffffffff8214156124645761246361246f565b5b600182019050919050565b7f4e487b7100000000000000000000000000000000000000000000000000000000600052601160045260246000fd5b7f4e487b7100000000000000000000000000000000000000000000000000000000600052602260045260246000fd5b6000601f19601f8301169050919050565b7f55736572206e6f7420666f756e6420696e20636f6e7472696275746f72206c6960008201527f7374000000000000000000000000000000000000000000000000000000000000602082015250565b7f636f6e747269627574696f6e20746f2070726f6a6563742063616e6e6f74206260008201527f6520686967686572207468616e20746172676574507269636500000000000000602082015250565b7f636f6e747269627574696f6e206d757374206265207375706572696f7220746f60008201527f207a65726f000000000000000000000000000000000000000000000000000000602082015250565b7f50726f6a65637420646561646c696e65206d75737420626520696e207468652060008201527f6675747572650000000000000000000000000000000000000000000000000000602082015250565b7f46756e64696e67206d757374206265206174206c656173742031207765690000600082015250565b7f70726f6a656374206964206d7573742062652076616c69640000000000000000600082015250565b7f5265656e7472616e637947756172643a207265656e7472616e742063616c6c00600082015250565b61269e81612364565b81146126a957600080fd5b50565b6126b5816123a8565b81146126c057600080fd5b5056fea264697066735822122052083ab3addf07ad3e956cd05a8c4afe9d392dc9db0fd72d967fede0c50b549664736f6c63430008040033",
  "linkReferences": {},
  "deployedLinkReferences": {}
}