{
  "_format": "hh-sol-artifact-1",
  "contractName": "Marketplace",
  "sourceName": "contracts/Marketplace.sol",
  "abi": [
    {
      "inputs": [],
      "stateMutability": "payable",
      "type": "constructor"
    },
    {
      "anonymous": false,
      "inputs": [
        {
          "indexed": true,
          "internalType": "uint256",
          "name": "itemId",
          "type": "uint256"
        },
        {
          "indexed": false,
          "internalType": "string",
          "name": "title",
          "type": "string"
        },
        {
          "indexed": false,
          "internalType": "string",
          "name": "description",
          "type": "string"
        },
        {
          "indexed": false,
          "internalType": "uint256",
          "name": "deadline",
          "type": "uint256"
        },
        {
          "indexed": false,
          "internalType": "address",
          "name": "seller",
          "type": "address"
        },
        {
          "indexed": false,
          "internalType": "uint256",
          "name": "targetFundingPrice",
          "type": "uint256"
        }
      ],
      "name": "MarketItemCreated",
      "type": "event"
    },
    {
      "inputs": [
        {
          "internalType": "string",
          "name": "description",
          "type": "string"
        },
        {
          "internalType": "string",
          "name": "title",
          "type": "string"
        },
        {
          "internalType": "uint256",
          "name": "funding",
          "type": "uint256"
        }
      ],
      "name": "createMarketItem",
      "outputs": [],
      "stateMutability": "payable",
      "type": "function"
    },
    {
      "inputs": [],
      "name": "fetchAllListings",
      "outputs": [
        {
          "components": [
            {
              "internalType": "uint256",
              "name": "itemId",
              "type": "uint256"
            },
            {
              "internalType": "string",
              "name": "title",
              "type": "string"
            },
            {
              "internalType": "string",
              "name": "description",
              "type": "string"
            },
            {
              "internalType": "uint256",
              "name": "deadline",
              "type": "uint256"
            },
            {
              "internalType": "address payable",
              "name": "seller",
              "type": "address"
            },
            {
              "internalType": "uint256",
              "name": "targetFundingPrice",
              "type": "uint256"
            }
          ],
          "internalType": "struct Marketplace.MarketItem[]",
          "name": "",
          "type": "tuple[]"
        }
      ],
      "stateMutability": "view",
      "type": "function"
    },
    {
      "inputs": [],
      "name": "fetchNumberListings",
      "outputs": [
        {
          "components": [
            {
              "internalType": "uint256",
              "name": "itemId",
              "type": "uint256"
            },
            {
              "internalType": "string",
              "name": "title",
              "type": "string"
            },
            {
              "internalType": "string",
              "name": "description",
              "type": "string"
            },
            {
              "internalType": "uint256",
              "name": "deadline",
              "type": "uint256"
            },
            {
              "internalType": "address payable",
              "name": "seller",
              "type": "address"
            },
            {
              "internalType": "uint256",
              "name": "targetFundingPrice",
              "type": "uint256"
            }
          ],
          "internalType": "struct Marketplace.MarketItem[]",
          "name": "",
          "type": "tuple[]"
        }
      ],
      "stateMutability": "view",
      "type": "function"
    },
    {
      "inputs": [
        {
          "internalType": "uint256",
          "name": "marketItemId",
          "type": "uint256"
        }
      ],
      "name": "getMarketItem",
      "outputs": [
        {
          "components": [
            {
              "internalType": "uint256",
              "name": "itemId",
              "type": "uint256"
            },
            {
              "internalType": "string",
              "name": "title",
              "type": "string"
            },
            {
              "internalType": "string",
              "name": "description",
              "type": "string"
            },
            {
              "internalType": "uint256",
              "name": "deadline",
              "type": "uint256"
            },
            {
              "internalType": "address payable",
              "name": "seller",
              "type": "address"
            },
            {
              "internalType": "uint256",
              "name": "targetFundingPrice",
              "type": "uint256"
            }
          ],
          "internalType": "struct Marketplace.MarketItem",
          "name": "",
          "type": "tuple"
        }
      ],
      "stateMutability": "view",
      "type": "function"
    }
  ],
  "bytecode": "0x608060405267016345785d8a0000600455600160008190555033600360006101000a81548173ffffffffffffffffffffffffffffffffffffffff021916908373ffffffffffffffffffffffffffffffffffffffff160217905550611425806100686000396000f3fe60806040526004361061003f5760003560e01c806316be3118146100445780632af7724c1461006057806378dc39601461008b578063c7be7a49146100b6575b600080fd5b61005e60048036038101906100599190610d24565b6100f3565b005b34801561006c57600080fd5b5061007561051b565b6040516100829190611067565b60405180910390f35b34801561009757600080fd5b506100a0610712565b6040516100ad9190611067565b60405180910390f35b3480156100c257600080fd5b506100dd60048036038101906100d89190610dad565b6109ed565b6040516100ea919061112e565b60405180910390f35b60026000541415610139576040517f08c379a00000000000000000000000000000000000000000000000000000000081526004016101309061110e565b60405180910390fd5b600260008190555060008111610184576040517f08c379a000000000000000000000000000000000000000000000000000000000815260040161017b906110ee565b60405180910390fd5b61018e6001610bb2565b600061019a6001610bc8565b9050600062278d00426101ad91906111b6565b90506040518060c0016040528083815260200186868080601f016020809104026020016040519081016040528093929190818152602001838380828437600081840152601f19601f82011690508083019250505050505050815260200188888080601f016020809104026020016040519081016040528093929190818152602001838380828437600081840152601f19601f8201169050808301925050505050505081526020018281526020013373ffffffffffffffffffffffffffffffffffffffff16815260200184815250600560008481526020019081526020016000206000820151816000015560208201518160010190805190602001906102b3929190610bd6565b5060408201518160020190805190602001906102d0929190610bd6565b506060820151816003015560808201518160040160006101000a81548173ffffffffffffffffffffffffffffffffffffffff021916908373ffffffffffffffffffffffffffffffffffffffff16021790555060a0820151816005015590505060066040518060c0016040528084815260200187878080601f016020809104026020016040519081016040528093929190818152602001838380828437600081840152601f19601f82011690508083019250505050505050815260200189898080601f016020809104026020016040519081016040528093929190818152602001838380828437600081840152601f19601f8201169050808301925050505050505081526020018381526020013373ffffffffffffffffffffffffffffffffffffffff16815260200185815250908060018154018082558091505060019003906000526020600020906006020160009091909190915060008201518160000155602082015181600101908051906020019061044b929190610bd6565b506040820151816002019080519060200190610468929190610bd6565b506060820151816003015560808201518160040160006101000a81548173ffffffffffffffffffffffffffffffffffffffff021916908373ffffffffffffffffffffffffffffffffffffffff16021790555060a082015181600501555050817ff604775d05eaeb61714ca23da55ed6b3e1dc5e818bfa6ba4c5d54dafc4b916ef86868a8a86338a6040516105029796959493929190611089565b60405180910390a2505060016000819055505050505050565b60606006805480602002602001604051908101604052809291908181526020016000905b8282101561070957838290600052602060002090600602016040518060c00160405290816000820154815260200160018201805461057c9061129c565b80601f01602080910402602001604051908101604052809291908181526020018280546105a89061129c565b80156105f55780601f106105ca576101008083540402835291602001916105f5565b820191906000526020600020905b8154815290600101906020018083116105d857829003601f168201915b5050505050815260200160028201805461060e9061129c565b80601f016020809104026020016040519081016040528092919081815260200182805461063a9061129c565b80156106875780601f1061065c57610100808354040283529160200191610687565b820191906000526020600020905b81548152906001019060200180831161066a57829003601f168201915b50505050508152602001600382015481526020016004820160009054906101000a900473ffffffffffffffffffffffffffffffffffffffff1673ffffffffffffffffffffffffffffffffffffffff1673ffffffffffffffffffffffffffffffffffffffff1681526020016005820154815250508152602001906001019061053f565b50505050905090565b606060006107206001610bc8565b905060008060008267ffffffffffffffff811115610767577f4e487b7100000000000000000000000000000000000000000000000000000000600052604160045260246000fd5b6040519080825280602002602001820160405280156107a057816020015b61078d610c5c565b8152602001906001900390816107855790505b50905060005b848110156109e25760006001826107bd91906111b6565b90506000600560008381526020019081526020016000209050806040518060c0016040529081600082015481526020016001820180546107fc9061129c565b80601f01602080910402602001604051908101604052809291908181526020018280546108289061129c565b80156108755780601f1061084a57610100808354040283529160200191610875565b820191906000526020600020905b81548152906001019060200180831161085857829003601f168201915b5050505050815260200160028201805461088e9061129c565b80601f01602080910402602001604051908101604052809291908181526020018280546108ba9061129c565b80156109075780601f106108dc57610100808354040283529160200191610907565b820191906000526020600020905b8154815290600101906020018083116108ea57829003601f168201915b50505050508152602001600382015481526020016004820160009054906101000a900473ffffffffffffffffffffffffffffffffffffffff1673ffffffffffffffffffffffffffffffffffffffff1673ffffffffffffffffffffffffffffffffffffffff1681526020016005820154815250508486815181106109b3577f4e487b7100000000000000000000000000000000000000000000000000000000600052603260045260246000fd5b60200260200101819052506001856109cb91906111b6565b9450505080806109da906112ce565b9150506107a6565b508094505050505090565b6109f5610c5c565b600560008381526020019081526020016000206040518060c001604052908160008201548152602001600182018054610a2d9061129c565b80601f0160208091040260200160405190810160405280929190818152602001828054610a599061129c565b8015610aa65780601f10610a7b57610100808354040283529160200191610aa6565b820191906000526020600020905b815481529060010190602001808311610a8957829003601f168201915b50505050508152602001600282018054610abf9061129c565b80601f0160208091040260200160405190810160405280929190818152602001828054610aeb9061129c565b8015610b385780601f10610b0d57610100808354040283529160200191610b38565b820191906000526020600020905b815481529060010190602001808311610b1b57829003601f168201915b50505050508152602001600382015481526020016004820160009054906101000a900473ffffffffffffffffffffffffffffffffffffffff1673ffffffffffffffffffffffffffffffffffffffff1673ffffffffffffffffffffffffffffffffffffffff1681526020016005820154815250509050919050565b6001816000016000828254019250508190555050565b600081600001549050919050565b828054610be29061129c565b90600052602060002090601f016020900481019282610c045760008555610c4b565b82601f10610c1d57805160ff1916838001178555610c4b565b82800160010185558215610c4b579182015b82811115610c4a578251825591602001919060010190610c2f565b5b509050610c589190610ca8565b5090565b6040518060c0016040528060008152602001606081526020016060815260200160008152602001600073ffffffffffffffffffffffffffffffffffffffff168152602001600081525090565b5b80821115610cc1576000816000905550600101610ca9565b5090565b60008083601f840112610cd757600080fd5b8235905067ffffffffffffffff811115610cf057600080fd5b602083019150836001820283011115610d0857600080fd5b9250929050565b600081359050610d1e816113d8565b92915050565b600080600080600060608688031215610d3c57600080fd5b600086013567ffffffffffffffff811115610d5657600080fd5b610d6288828901610cc5565b9550955050602086013567ffffffffffffffff811115610d8157600080fd5b610d8d88828901610cc5565b93509350506040610da088828901610d0f565b9150509295509295909350565b600060208284031215610dbf57600080fd5b6000610dcd84828501610d0f565b91505092915050565b6000610de28383610f29565b905092915050565b610df38161121e565b82525050565b610e028161120c565b82525050565b6000610e1382611160565b610e1d8185611183565b935083602082028501610e2f85611150565b8060005b85811015610e6b5784840389528151610e4c8582610dd6565b9450610e5783611176565b925060208a01995050600181019050610e33565b50829750879550505050505092915050565b6000610e8983856111a5565b9350610e9683858461125a565b610e9f83611375565b840190509392505050565b6000610eb58261116b565b610ebf8185611194565b9350610ecf818560208601611269565b610ed881611375565b840191505092915050565b6000610ef0601e836111a5565b9150610efb82611386565b602082019050919050565b6000610f13601f836111a5565b9150610f1e826113af565b602082019050919050565b600060c083016000830151610f416000860182611049565b5060208301518482036020860152610f598282610eaa565b91505060408301518482036040860152610f738282610eaa565b9150506060830151610f886060860182611049565b506080830151610f9b6080860182610dea565b5060a0830151610fae60a0860182611049565b508091505092915050565b600060c083016000830151610fd16000860182611049565b5060208301518482036020860152610fe98282610eaa565b915050604083015184820360408601526110038282610eaa565b91505060608301516110186060860182611049565b50608083015161102b6080860182610dea565b5060a083015161103e60a0860182611049565b508091505092915050565b61105281611250565b82525050565b61106181611250565b82525050565b600060208201905081810360008301526110818184610e08565b905092915050565b600060a08201905081810360008301526110a481898b610e7d565b905081810360208301526110b9818789610e7d565b90506110c86040830186611058565b6110d56060830185610df9565b6110e26080830184611058565b98975050505050505050565b6000602082019050818103600083015261110781610ee3565b9050919050565b6000602082019050818103600083015261112781610f06565b9050919050565b600060208201905081810360008301526111488184610fb9565b905092915050565b6000819050602082019050919050565b600081519050919050565b600081519050919050565b6000602082019050919050565b600082825260208201905092915050565b600082825260208201905092915050565b600082825260208201905092915050565b60006111c182611250565b91506111cc83611250565b9250827fffffffffffffffffffffffffffffffffffffffffffffffffffffffffffffffff0382111561120157611200611317565b5b828201905092915050565b600061121782611230565b9050919050565b600061122982611230565b9050919050565b600073ffffffffffffffffffffffffffffffffffffffff82169050919050565b6000819050919050565b82818337600083830152505050565b60005b8381101561128757808201518184015260208101905061126c565b83811115611296576000848401525b50505050565b600060028204905060018216806112b457607f821691505b602082108114156112c8576112c7611346565b5b50919050565b60006112d982611250565b91507fffffffffffffffffffffffffffffffffffffffffffffffffffffffffffffffff82141561130c5761130b611317565b5b600182019050919050565b7f4e487b7100000000000000000000000000000000000000000000000000000000600052601160045260246000fd5b7f4e487b7100000000000000000000000000000000000000000000000000000000600052602260045260246000fd5b6000601f19601f8301169050919050565b7f46756e64696e67206d757374206265206174206c656173742031207765690000600082015250565b7f5265656e7472616e637947756172643a207265656e7472616e742063616c6c00600082015250565b6113e181611250565b81146113ec57600080fd5b5056fea2646970667358221220426d11e76c58797bd279a44f270860c91d6737a5bc154350d4953a8d97409c2264736f6c63430008040033",
  "linkReferences": {},
  "deployedLinkReferences": {}
}